:10000000010A2500870C0200FC0C06006600700047
:100010004F0910024306190A010F4306230A030F72
:100020004306390A010F4306410A070F4306490AEE
:10003000090A260406046606090A4F096606090A23
:10004000030C3000090A26056606090A71004F09EB
:10005000B10266062F0A0C0C91000307270A0B0C4D
:1000600091000307360A040C3000090A020C300024
:10007000090A260506054F094F090604010C300040
:10008000090A26056606460A4F09420A010C300095
:10009000090A26044F0966074A0A7000090A610026
:1000A0000A0C81000307500A01024307540A0A0C94
:0E00B00081000307570A010243075B0A00089C
:021FFE00EB0FE7
:00000001FF
